{"abi":[{"name":"proposals","type":"function","inputs":[{"name":"","type":"uint256"}],"outputs":[{"name":"","type":"uint256"}],"payable":false,"constant":true,"stateMutability":"view"},{"name":"chairperson","type":"function","inputs":[],"outputs":[{"name":"","type":"address"}],"payable":false,"constant":true,"stateMutability":"view"},{"name":"voters","type":"function","inputs":[{"name":"","type":"address"}],"outputs":[{"name":"weight","type":"uint256"},{"name":"voted","type":"bool"},{"name":"vote","type":"uint8"}],"payable":false,"constant":true,"stateMutability":"view"},{"type":"constructor","inputs":[],"payable":false,"stateMutability":"nonpayable"},{"name":"register","type":"function","inputs":[{"name":"toVoter","type":"address"}],"outputs":[],"payable":false,"constant":false,"stateMutability":"nonpayable"},{"name":"vote","type":"function","inputs":[{"name":"toProposal","type":"uint8"}],"outputs":[],"payable":false,"constant":false,"stateMutability":"nonpayable"},{"name":"winningProposal","type":"function","inputs":[],"outputs":[{"name":"_winningProposal","type":"uint8"}],"payable":false,"constant":true,"stateMutability":"view"},{"name":"getCount","type":"function","inputs":[],"outputs":[{"name":"","type":"uint256[4]"}],"payable":false,"constant":true,"stateMutability":"view"}],"devdoc":{"methods":{}},"source":"pragma solidity ^0.4.17;\n\ncontract Ballot {\n\n    struct Voter {\n        uint weight;\n        bool voted;\n        uint8 vote;\n        // address delegate;\n    }\n\n    //modifer\n    modifier onlyOwner () {\n      require(msg.sender == chairperson);\n      _;\n    }\n\n    /* struct Proposal {\n        uint voteCount; // could add other data about proposal\n    } */\n    address public chairperson;\n    mapping(address => Voter) public voters;\n    uint[4] public proposals;\n\n    // Create a new ballot with 4 different proposals.\n    function Ballot() public {\n        chairperson = msg.sender;\n        voters[chairperson].weight = 2;\n    }\n\n    /// Give $(toVoter) the right to vote on this ballot.\n    /// May only be called by $(chairperson).\n    function register(address toVoter) public onlyOwner{\n        if(voters[toVoter].weight != 0) revert();\n        voters[toVoter].weight = 1;\n        voters[toVoter].voted = false;\n    }\n\n    /// Give a single vote to proposal $(toProposal).\n    function vote(uint8 toProposal) public {\n        Voter storage sender = voters[msg.sender];\n        if (sender.voted || toProposal >= 4 || sender.weight == 0) revert();\n        sender.voted = true;\n        sender.vote = toProposal;\n        proposals[toProposal] += sender.weight;\n    }\n\n    function winningProposal() public constant returns (uint8 _winningProposal) {\n        uint256 winningVoteCount = 0;\n        for (uint8 prop = 0; prop < 4; prop++)\n            if (proposals[prop] > winningVoteCount) {\n                winningVoteCount = proposals[prop];\n                _winningProposal = prop;\n            }\n    }\n\n    function getCount() public constant returns (uint[4]) {\n        return proposals;\n    }\n}\n","userdoc":{"methods":{"vote(uint8)":{"notice":"Give a single vote to proposal $(toProposal)."},"register(address)":{"notice":"Give $(toVoter) the right to vote on this ballot. May only be called by $(chairperson)."}}},"bytecode":"0x6060604052341561000f57600080fd5b336000806101000a81548173ffffffffffffffffffffffffffffffffffffffff021916908373ffffffffffffffffffffffffffffffffffffffff1602179055506002600160008060009054906101000a900473ffffffffffffffffffffffffffffffffffffffff1673ffffffffffffffffffffffffffffffffffffffff1673ffffffffffffffffffffffffffffffffffffffff16815260200190815260200160002060000181905550610609806100c76000396000f30060606040523615610081576000357c0100000000000000000000000000000000000000000000000000000000900463ffffffff168063013cf08b146100865780632e4176cf146100bd5780634420e48614610112578063609ff1bd1461014b578063a3ec138d1461017a578063a87d942c146101df578063b3f98adc14610230575b600080fd5b341561009157600080fd5b6100a76004808035906020019091905050610256565b6040518082815260200191505060405180910390f35b34156100c857600080fd5b6100d0610270565b604051808273ffffffffffffffffffffffffffffffffffffffff1673ffffffffffffffffffffffffffffffffffffffff16815260200191505060405180910390f35b341561011d57600080fd5b610149600480803573ffffffffffffffffffffffffffffffffffffffff16906020019091905050610295565b005b341561015657600080fd5b61015e6103e6565b604051808260ff1660ff16815260200191505060405180910390f35b341561018557600080fd5b6101b1600480803573ffffffffffffffffffffffffffffffffffffffff16906020019091905050610446565b60405180848152602001831515151581526020018260ff1660ff168152602001935050505060405180910390f35b34156101ea57600080fd5b6101f261048a565b6040518082600460200280838360005b8381101561021d578082015181840152602081019050610202565b5050505090500191505060405180910390f35b341561023b57600080fd5b610254600480803560ff169060200190919050506104d5565b005b60028160048110151561026557fe5b016000915090505481565b6000809054906101000a900473ffffffffffffffffffffffffffffffffffffffff1681565b6000809054906101000a900473ffffffffffffffffffffffffffffffffffffffff1673ffffffffffffffffffffffffffffffffffffffff163373ffffffffffffffffffffffffffffffffffffffff161415156102f057600080fd5b6000600160008373ffffffffffffffffffffffffffffffffffffffff1673ffffffffffffffffffffffffffffffffffffffff1681526020019081526020016000206000015414151561034157600080fd5b60018060008373ffffffffffffffffffffffffffffffffffffffff1673ffffffffffffffffffffffffffffffffffffffff168152602001908152602001600020600001819055506000600160008373ffffffffffffffffffffffffffffffffffffffff1673ffffffffffffffffffffffffffffffffffffffff16815260200190815260200160002060010160006101000a81548160ff02191690831515021790555050565b6000806000809150600090505b60048160ff161015610441578160028260ff1660048110151561041257fe5b015411156104345760028160ff1660048110151561042c57fe5b015491508092505b80806001019150506103f3565b505090565b60016020528060005260406000206000915090508060000154908060010160009054906101000a900460ff16908060010160019054906101000a900460ff16905083565b6104926105b5565b60026004806020026040519081016040528092919082600480156104cb576020028201915b8154815260200190600101908083116104b7575b5050505050905090565b6000600160003373ffffffffffffffffffffffffffffffffffffffff1673ffffffffffffffffffffffffffffffffffffffff16815260200190815260200160002090508060010160009054906101000a900460ff1680610539575060048260ff1610155b80610548575060008160000154145b1561055257600080fd5b60018160010160006101000a81548160ff021916908315150217905550818160010160016101000a81548160ff021916908360ff160217905550806000015460028360ff166004811015156105a357fe5b01600082825401925050819055505050565b6080604051908101604052806004905b60008152602001906001900390816105c557905050905600a165627a7a72305820100e67b09d7b33d0a59acfa8a349285b9b03f2aa46b6d4bec437e992f5f425760029","compiler":{"name":"solc","version":"0.4.17+commit.bdeb9e52.Emscripten.clang"},"updatedAt":"2020-10-20T12:53:17.792Z","sourcePath":"/home/builduser/teams_workingdir/repo/contracts/Ballot.sol","networkType":"ethereum","contractName":"Ballot","schemaVersion":"3.3.1"}